{
  "address": "0xe7f1725E7734CE288F8367e1Bb143E90bb3F0512",
  "abi": [
    {
      "inputs": [
        {
          "internalType": "address",
          "name": "priceFeedAddress",
          "type": "address"
        }
      ],
      "stateMutability": "nonpayable",
      "type": "constructor"
    },
    {
      "inputs": [],
      "name": "FundMe__NotOwner",
      "type": "error"
    },
    {
      "stateMutability": "payable",
      "type": "fallback"
    },
    {
      "inputs": [],
      "name": "MINIMUM_USD",
      "outputs": [
        {
          "internalType": "uint256",
          "name": "",
          "type": "uint256"
        }
      ],
      "stateMutability": "view",
      "type": "function"
    },
    {
      "inputs": [],
      "name": "cheaperWithdraw",
      "outputs": [],
      "stateMutability": "payable",
      "type": "function"
    },
    {
      "inputs": [],
      "name": "fund",
      "outputs": [],
      "stateMutability": "payable",
      "type": "function"
    },
    {
      "inputs": [
        {
          "internalType": "address",
          "name": "funder",
          "type": "address"
        }
      ],
      "name": "getAddressToAmountFunded",
      "outputs": [
        {
          "internalType": "uint256",
          "name": "",
          "type": "uint256"
        }
      ],
      "stateMutability": "view",
      "type": "function"
    },
    {
      "inputs": [
        {
          "internalType": "uint256",
          "name": "index",
          "type": "uint256"
        }
      ],
      "name": "getFunder",
      "outputs": [
        {
          "internalType": "address",
          "name": "",
          "type": "address"
        }
      ],
      "stateMutability": "view",
      "type": "function"
    },
    {
      "inputs": [],
      "name": "getOwner",
      "outputs": [
        {
          "internalType": "address",
          "name": "",
          "type": "address"
        }
      ],
      "stateMutability": "view",
      "type": "function"
    },
    {
      "inputs": [],
      "name": "getPriceFeed",
      "outputs": [
        {
          "internalType": "contract AggregatorV3Interface",
          "name": "",
          "type": "address"
        }
      ],
      "stateMutability": "view",
      "type": "function"
    },
    {
      "inputs": [],
      "name": "s_priceFeed",
      "outputs": [
        {
          "internalType": "contract AggregatorV3Interface",
          "name": "",
          "type": "address"
        }
      ],
      "stateMutability": "view",
      "type": "function"
    },
    {
      "inputs": [],
      "name": "withdraw",
      "outputs": [],
      "stateMutability": "payable",
      "type": "function"
    },
    {
      "stateMutability": "payable",
      "type": "receive"
    }
  ],
  "transactionHash": "0x2fc8bce69b3774378a271d37b4c1ec7b0be87f1b2c7c7da1801ab845dacf055e",
  "args": [
    "0x5FbDB2315678afecb367f032d93F642f64180aa3"
  ],
  "numDeployments": 1,
  "solcInputHash": "198e10821d2b64b5c17ce33689f4a091",
  "bytecode": "0x60a06040523480156200001157600080fd5b50604051620012133803806200121383398181016040528101906200003791906200011d565b3373ffffffffffffffffffffffffffffffffffffffff1660808173ffffffffffffffffffffffffffffffffffffffff168152505080600260006101000a81548173ffffffffffffffffffffffffffffffffffffffff021916908373ffffffffffffffffffffffffffffffffffffffff160217905550506200014f565b600080fd5b600073ffffffffffffffffffffffffffffffffffffffff82169050919050565b6000620000e582620000b8565b9050919050565b620000f781620000d8565b81146200010357600080fd5b50565b6000815190506200011781620000ec565b92915050565b600060208284031215620001365762000135620000b3565b5b6000620001468482850162000106565b91505092915050565b60805161109a6200017960003960008181610381015281816105d00152610620015261109a6000f3fe60806040526004361061008a5760003560e01c8063893d20e811610059578063893d20e8146101405780639e87a5cd1461016b578063b60d428814610196578063be2693f0146101a0578063d7b4750c146101aa57610099565b80630343fb25146100a35780630ec3b027146100e05780633ccfd60b1461010b5780636b69a5921461011557610099565b36610099576100976101e7565b005b6100a16101e7565b005b3480156100af57600080fd5b506100ca60048036038101906100c59190610ae0565b610310565b6040516100d79190610b26565b60405180910390f35b3480156100ec57600080fd5b506100f5610359565b6040516101029190610ba0565b60405180910390f35b61011361037f565b005b34801561012157600080fd5b5061012a6105bf565b6040516101379190610b26565b60405180910390f35b34801561014c57600080fd5b506101556105cc565b6040516101629190610bca565b60405180910390f35b34801561017757600080fd5b506101806105f4565b60405161018d9190610ba0565b60405180910390f35b61019e6101e7565b005b6101a861061e565b005b3480156101b657600080fd5b506101d160048036038101906101cc9190610c11565b6108c2565b6040516101de9190610bca565b60405180910390f35b6802b5e3af16b1880000610226600260009054906101000a900473ffffffffffffffffffffffffffffffffffffffff163461090990919063ffffffff16565b1015610267576040517f08c379a000000000000000000000000000000000000000000000000000000000815260040161025e90610c9b565b60405180910390fd5b6000339080600181540180825580915050600190039060005260206000200160009091909190916101000a81548173ffffffffffffffffffffffffffffffffffffffff021916908373ffffffffffffffffffffffffffffffffffffffff16021790555034600160003373ffffffffffffffffffffffffffffffffffffffff1673ffffffffffffffffffffffffffffffffffffffff16815260200190815260200160002081905550565b6000600160008373ffffffffffffffffffffffffffffffffffffffff1673ffffffffffffffffffffffffffffffffffffffff168152602001908152602001600020549050919050565b600260009054906101000a900473ffffffffffffffffffffffffffffffffffffffff1681565b7f000000000000000000000000000000000000000000000000000000000000000073ffffffffffffffffffffffffffffffffffffffff163373ffffffffffffffffffffffffffffffffffffffff1614610404576040517f579610db00000000000000000000000000000000000000000000000000000000815260040160405180910390fd5b60005b6000805490508110156104af57600080828154811061042957610428610cbb565b5b9060005260206000200160009054906101000a900473ffffffffffffffffffffffffffffffffffffffff1690506000600160008373ffffffffffffffffffffffffffffffffffffffff1673ffffffffffffffffffffffffffffffffffffffff168152602001908152602001600020819055505080806104a790610d19565b915050610407565b50600067ffffffffffffffff8111156104cb576104ca610d61565b5b6040519080825280602002602001820160405280156104f95781602001602082028036833780820191505090505b506000908051906020019061050f9291906109d6565b5060003373ffffffffffffffffffffffffffffffffffffffff164760405161053690610dc1565b60006040518083038185875af1925050503d8060008114610573576040519150601f19603f3d011682016040523d82523d6000602084013e610578565b606091505b50509050806105bc576040517f08c379a00000000000000000000000000000000000000000000000000000000081526004016105b390610e22565b60405180910390fd5b50565b6802b5e3af16b188000081565b60007f0000000000000000000000000000000000000000000000000000000000000000905090565b6000600260009054906101000a900473ffffffffffffffffffffffffffffffffffffffff16905090565b7f000000000000000000000000000000000000000000000000000000000000000073ffffffffffffffffffffffffffffffffffffffff163373ffffffffffffffffffffffffffffffffffffffff16146106a3576040517f579610db00000000000000000000000000000000000000000000000000000000815260040160405180910390fd5b60008080548060200260200160405190810160405280929190818152602001828054801561072657602002820191906000526020600020905b8160009054906101000a900473ffffffffffffffffffffffffffffffffffffffff1673ffffffffffffffffffffffffffffffffffffffff16815260200190600101908083116106dc575b5050505050905060005b81518110156107b157600082828151811061074e5761074d610cbb565b5b602002602001015190506000600160008373ffffffffffffffffffffffffffffffffffffffff1673ffffffffffffffffffffffffffffffffffffffff168152602001908152602001600020819055505080806107a990610d19565b915050610730565b50600067ffffffffffffffff8111156107cd576107cc610d61565b5b6040519080825280602002602001820160405280156107fb5781602001602082028036833780820191505090505b50600090805190602001906108119291906109d6565b5060003373ffffffffffffffffffffffffffffffffffffffff164760405161083890610dc1565b60006040518083038185875af1925050503d8060008114610875576040519150601f19603f3d011682016040523d82523d6000602084013e61087a565b606091505b50509050806108be576040517f08c379a00000000000000000000000000000000000000000000000000000000081526004016108b590610e22565b60405180910390fd5b5050565b60008082815481106108d7576108d6610cbb565b5b9060005260206000200160009054906101000a900473ffffffffffffffffffffffffffffffffffffffff169050919050565b60008061091583610945565b90506000670de0b6b3a7640000858361092e9190610e42565b6109389190610eb3565b9050809250505092915050565b6000808273ffffffffffffffffffffffffffffffffffffffff1663feaf968c6040518163ffffffff1660e01b815260040160a060405180830381865afa158015610993573d6000803e3d6000fd5b505050506040513d601f19601f820116820180604052508101906109b79190610f71565b5050509150506402540be400816109ce9190610fec565b915050919050565b828054828255906000526020600020908101928215610a4f579160200282015b82811115610a4e5782518260006101000a81548173ffffffffffffffffffffffffffffffffffffffff021916908373ffffffffffffffffffffffffffffffffffffffff160217905550916020019190600101906109f6565b5b509050610a5c9190610a60565b5090565b5b80821115610a79576000816000905550600101610a61565b5090565b600080fd5b600073ffffffffffffffffffffffffffffffffffffffff82169050919050565b6000610aad82610a82565b9050919050565b610abd81610aa2565b8114610ac857600080fd5b50565b600081359050610ada81610ab4565b92915050565b600060208284031215610af657610af5610a7d565b5b6000610b0484828501610acb565b91505092915050565b6000819050919050565b610b2081610b0d565b82525050565b6000602082019050610b3b6000830184610b17565b92915050565b6000819050919050565b6000610b66610b61610b5c84610a82565b610b41565b610a82565b9050919050565b6000610b7882610b4b565b9050919050565b6000610b8a82610b6d565b9050919050565b610b9a81610b7f565b82525050565b6000602082019050610bb56000830184610b91565b92915050565b610bc481610aa2565b82525050565b6000602082019050610bdf6000830184610bbb565b92915050565b610bee81610b0d565b8114610bf957600080fd5b50565b600081359050610c0b81610be5565b92915050565b600060208284031215610c2757610c26610a7d565b5b6000610c3584828501610bfc565b91505092915050565b600082825260208201905092915050565b7f4469646e27742073656e6420656e6f7567680000000000000000000000000000600082015250565b6000610c85601283610c3e565b9150610c9082610c4f565b602082019050919050565b60006020820190508181036000830152610cb481610c78565b9050919050565b7f4e487b7100000000000000000000000000000000000000000000000000000000600052603260045260246000fd5b7f4e487b7100000000000000000000000000000000000000000000000000000000600052601160045260246000fd5b6000610d2482610b0d565b91507fffffffffffffffffffffffffffffffffffffffffffffffffffffffffffffffff8203610d5657610d55610cea565b5b600182019050919050565b7f4e487b7100000000000000000000000000000000000000000000000000000000600052604160045260246000fd5b600081905092915050565b50565b6000610dab600083610d90565b9150610db682610d9b565b600082019050919050565b6000610dcc82610d9e565b9150819050919050565b7f43616c6c206661696c6564000000000000000000000000000000000000000000600082015250565b6000610e0c600b83610c3e565b9150610e1782610dd6565b602082019050919050565b60006020820190508181036000830152610e3b81610dff565b9050919050565b6000610e4d82610b0d565b9150610e5883610b0d565b9250828202610e6681610b0d565b91508282048414831517610e7d57610e7c610cea565b5b5092915050565b7f4e487b7100000000000000000000000000000000000000000000000000000000600052601260045260246000fd5b6000610ebe82610b0d565b9150610ec983610b0d565b925082610ed957610ed8610e84565b5b828204905092915050565b600069ffffffffffffffffffff82169050919050565b610f0381610ee4565b8114610f0e57600080fd5b50565b600081519050610f2081610efa565b92915050565b6000819050919050565b610f3981610f26565b8114610f4457600080fd5b50565b600081519050610f5681610f30565b92915050565b600081519050610f6b81610be5565b92915050565b600080600080600060a08688031215610f8d57610f8c610a7d565b5b6000610f9b88828901610f11565b9550506020610fac88828901610f47565b9450506040610fbd88828901610f5c565b9350506060610fce88828901610f5c565b9250506080610fdf88828901610f11565b9150509295509295909350565b6000610ff782610f26565b915061100283610f26565b925082820261101081610f26565b91507f8000000000000000000000000000000000000000000000000000000000000000841460008412161561104857611047610cea565b5b828205841483151761105d5761105c610cea565b5b509291505056fea2646970667358221220cfc54185eff7c60bd130329991f4ee16690048a3daee51fabced23e885b34e3464736f6c63430008110033",
  "devdoc": {
    "author": "Leon",
    "details": "This implements price feeds as our library",
    "kind": "dev",
    "methods": {
      "fund()": {
        "details": "This implements price feeds as our library"
      }
    },
    "title": "A contract for crowd funding",
    "version": 1
  },
  "userdoc": {
    "kind": "user",
    "methods": {
      "fund()": {
        "notice": "This function funds this contract"
      }
    },
    "notice": "This contract is to demo a smple funding contract",
    "version": 1
  },
  "storageLayout": {
    "storage": [
      {
        "astId": 65,
        "contract": "contracts/FundMe.sol:FundMe",
        "label": "s_funders",
        "offset": 0,
        "slot": "0",
        "type": "t_array(t_address)dyn_storage"
      },
      {
        "astId": 69,
        "contract": "contracts/FundMe.sol:FundMe",
        "label": "s_addressToAmountFunded",
        "offset": 0,
        "slot": "1",
        "type": "t_mapping(t_address,t_uint256)"
      },
      {
        "astId": 72,
        "contract": "contracts/FundMe.sol:FundMe",
        "label": "s_priceFeed",
        "offset": 0,
        "slot": "2",
        "type": "t_contract(AggregatorV3Interface)45"
      }
    ],
    "types": {
      "t_address": {
        "encoding": "inplace",
        "label": "address",
        "numberOfBytes": "20"
      },
      "t_array(t_address)dyn_storage": {
        "base": "t_address",
        "encoding": "dynamic_array",
        "label": "address[]",
        "numberOfBytes": "32"
      },
      "t_contract(AggregatorV3Interface)45": {
        "encoding": "inplace",
        "label": "contract AggregatorV3Interface",
        "numberOfBytes": "20"
      },
      "t_mapping(t_address,t_uint256)": {
        "encoding": "mapping",
        "key": "t_address",
        "label": "mapping(address => uint256)",
        "numberOfBytes": "32",
        "value": "t_uint256"
      },
      "t_uint256": {
        "encoding": "inplace",
        "label": "uint256",
        "numberOfBytes": "32"
      }
    }
  }
}